:020000040800F2
:100000005805002049010008BD020008B50200089B
:10001000B902000891010008D7080008000000009C
:100020000000000000000000000000005D04000867
:100030009501000800000000450300087105000854
:100040006301000863010008630100086301000800
:1000500063010008630100086301000863010008F0
:1000600063010008630100086301000863010008E0
:1000700063010008630100086301000863010008D0
:1000800063010008630100086301000863010008C0
:1000900063010008630100086301000863010008B0
:1000A00063010008630100086301000863010008A0
:1000B0006301000863010008D5050008630100081A
:1000C0006301000863010008630100086301000880
:1000D0006301000863010008D906000863010008F5
:1000E0006301000863010008630100086301000860
:1000F0006301000863010008630100086301000850
:10010000630100086301000863010008630100083F
:10011000630100086301000863010008630100082F
:10012000630100086301000863010008630100081F
:10013000DFF810D000F01AF80048004789090008DD
:10014000AFF3008058050020064880470648004766
:10015000FEE7FEE7FEE7FEE7FEE7FEE7FEE7FEE777
:10016000FEE7FEE77505000831010008064C074D63
:1001700006E0E06840F0010394E807009847103477
:10018000AC42F6D3FFF7D8FFE010000800110008DA
:1001900000BFFEE770472DE9F0410246002500262A
:1001A000002000230024002791F803C00CF00F0565
:1001B00091F803C00CF0100CBCF1000F03D091F8C3
:1001C00002C04CEA050591F800C0BCF1000F31D027
:1001D000146800202BE04FF0010C0CFA00F3B1F88A
:1001E00000C00CEA03069E4220D183004FF00F0CA2
:1001F0000CFA03F7BC4305FA03FC4CEA040491F83B
:1002000003C0BCF1280F06D14FF0010C0CFA00FC22
:10021000C2F814C00AE091F803C0BCF1480F05D140
:100220004FF0010C0CFA00FCC2F810C0401C08286A
:10023000D1D31460B1F800C0BCF1FF0F34DD5468B5
:1002400000202EE000F1080C4FF0010808FA0CF332
:10025000B1F800C00CEA03069E4221D183004FF0A2
:100260000F0C0CFA03F7BC4305FA03FC4CEA040438
:1002700091F803C0BCF1280F05D100F1080C08FA71
:100280000CF8C2F8148091F803C0BCF1480F07D1F4
:1002900000F1080C4FF0010808FA0CF8C2F81080C1
:1002A000401C0828CED35460BDE8F08141617047FE
:1002B0000161704700BFFEE700BFFEE77047000026
:1002C00070B5002100230F22C47804B3154C2468B4
:1002D00004F4E064C4F5E064210AC1F10403CA40F7
:1002E000447804FA03F184781440214309010E4C48
:1002F0000678A155047804F01F050124AC40057868
:100300006D11AD0005F1E025C5F8004109E0047864
:1003100004F01F050124AC40044D0678761145F821
:10032000264070BD0CED00E000E400E080E100E05C
:1003300002490143024A1160704700000000FA05BB
:100340000CED00E07047000029B1064AD269024373
:10035000044BDA6104E0034AD2698243014BDA615B
:10036000704700000010024029B1064A926902431A
:10037000044B9A6104E0034A92698243014B9A61FB
:10038000704700000010024030B500210022002418
:1003900000232D4D6D6805F00C0121B1042905D015
:1003A000082923D105E0294D056022E0274D05608D
:1003B0001FE0254D6D6805F47012234D6D6805F43E
:1003C0008034022505EB92421CB9214D554305604E
:1003D0000BE01D4D6D6805F400351DB11C4D5543F6
:1003E000056002E0194D5543056002E0174D0560B8
:1003F00000BF00BF144D6D6805F0F0010909154DEF
:100400006B5C0568DD4045600F4D6D6805F4E0618B
:10041000090A104D6B5C4568DD4085600A4D6D68CA
:1004200005F46051C90A0B4D6B5C4568DD40C56041
:10043000054D6D6805F44041890B074D6B5CC5683F
:10044000B5FBF3F5056130BD0010024000127A00E3
:1004500000093D001400002024000020704710B562
:1004600000F002F810BD00000CB5002001900090D3
:100470003348006840F480303149086000BF30489C
:10048000006800F4003000900198401C0190009832
:1004900018B90198B0F5A06FF1D12948006800F4AF
:1004A000003010B10120009001E000200090009881
:1004B000012843D12348006840F01000214908601A
:1004C0000846006820F0030008600846006840F015
:1004D000020008601A4840681949486008464068A8
:1004E00048600846406840F48060486008464068BC
:1004F00020F47C1048600846406840F4E8104860EA
:100500000846006840F08070086000BF0C48006832
:1005100000F000700028F9D00948406820F003007E
:10052000074948600846406840F00200486000BF44
:100530000348406800F00C000828F9D10CBD000009
:100540000010024000200240042808D14FF0E021B2
:10055000096941F004014FF0E022116107E04FF01A
:10056000E021096921F004014FF0E0221161704798
:100570007047000010B51348006840F001001149B1
:10058000086008464068104908400E49486008461F
:1005900000680E4908400B4908600846006820F4CE
:1005A000802008600846406820F4FE0048604FF450
:1005B0001F008860FFF753FF4FF000600449086098
:1005C00010BD0000001002400000FFF8FFFFF6FE23
:1005D00008ED00E010B50121024800F011F800F02C
:1005E000EBFB10BD0008004021B1028842F0800200
:1005F000028004E002884FF67F731A400280704741
:10060000CA430282704721B1028842F0010202808F
:1006100004E002884FF6FE731A40028070471AB158
:1006200083890B43838102E083898B4383817047F5
:1006300081847047002202881D4B98420ED01D4BCA
:1006400098420BD0B0F1804F08D01B4B984205D098
:100650001A4B984202D01A4B984204D14FF68F732E
:100660001A404B881A43174B984207D0164B9842B2
:1006700004D04FF6FF431A40CB881A4302808B8880
:1006800083850B8803850A4B98420BD0094B98420F
:1006900008D00E4B984205D00D4B984202D00D4B1E
:1006A000984201D10B7A03860123838270470000B0
:1006B000002C0140003401400004004000080040CC
:1006C000000C0040001000400014004000400140B9
:1006D000004401400048014010B540F225510D484A
:1006E00000F035F830B100F095FB40F22551094893
:1006F00000F012F840F22661064800F028F80128C0
:1007000006D100F0BDFB40F22661024800F004F87B
:1007100010BD00000044004010B50022002340F648
:100720006A14A14200D100BF0A1201249440A3B26E
:10073000DC43048010BD21B1828942F400528281E1
:1007400004E082894DF6FF731A408281704770B5CC
:100750000246002400230025002040F66A16B1421C
:1007600000D100BFC1F3421501F01F03012606FAB4
:1007700003F3012D02D19689334006E0022D02D108
:10078000168A334001E0968A33400C12012606FA9D
:1007900004F41688344013B10CB1012000E00020AD
:1007A00070BDF0B50346002400260025002040F669
:1007B0006A17B94200D100BF1846C1F3421401F0D4
:1007C0001F06012707FA06F5012C01D10C3004E0C1
:1007D000022C01D1103000E014301AB107682F4309
:1007E000076002E00768AF430760F0BD2DE9F047FE
:1007F00086B005460E460024A24600BFA14600274B
:10080000B08900B100BF2F462C8A4CF6FF7004401F
:10081000F08804432C82AC894EF6F3100440B08873
:1008200031890843718908430443AC81AC8A4FF68F
:10083000FF400440B0890443AC8201A8FFF7A4FD47
:100840001F48874202D1DDF810A001E0DDF80CA0BE
:10085000A88900F4004040B10AEBCA0000EB0A107E
:1008600031684900B0FBF1F807E00AEBCA0000EB81
:100870000A1031688900B0FBF1F86420B8FBF0F091
:1008800004012009642101FB1089A88900F40040BB
:1008900040B1322000EBC900B0FBF1F000F00700DE
:1008A000044308E0322000EB09106421B0FBF1F0B2
:1008B00000F00F0004432C8106B0BDE8F087000073
:1008C0000038014001468888C0F308007047C1F332
:1008D00008028280704700BFFEE702E008C8121FCE
:1008E00008C1002AFAD170477047002001E001C119
:1008F000121F002AFBD1704710B56FF00400FFF7FC
:1009000023FE0A4800680A49B0FBF1F00949087063
:100910000846007800EB4001C1EBC0104FF6FF71B4
:1009200001EAC0000449088010BD0000000000205A
:1009300000127A00280000202A0000200146114AF7
:1009400012884A434FF0E0235A6100229A611A4606
:10095000126942F001021A6100BF4FF0E0221069F3
:1009600000F001021AB100F48032002AF5D04FF0F5
:10097000E022126922F001024FF0E0231A61002206
:100980009A6170472A000020FFF7B6FF00214FF45C
:10099000964000F0A3F94FF47A70FFF7CFFF15E00F
:1009A0000B2300220321012000F0C8F93220FFF7B9
:1009B000C5FF00F0A3F90B2300220321022000F061
:1009C000BDF93220FFF7BAFF00F098F9E8E7000020
:1009D00070B502460C46FF25FF2309E012F8010B13
:1009E00080EA03010648405C80EA05030548455C4F
:1009F000201EA4F10106B4B2F0D143EA052070BD77
:100A0000E00E0008E00F000810B504460248FFF7AA
:100A100059FF207010BD00000044004010B504468E
:100A200021460248FFF753FF10BD0000004400407C
:100A300010B500210848FFF7E6FD00210648FFF742
:100A4000F7FD002201210448FFF7E9FD01210248DA
:100A5000FFF7D6FD10BD00000008004010B50121D1
:100A60000848FFF7CDFD012211460648FFF7D7FDE4
:100A700000210448FFF7DCFD01210248FFF7C3FD18
:100A800010BD0000000800407FB504460026B4F504
:100A9000964F01D9232503E060002049B1FBF0F512
:100AA00001210420FFF750FC1D48006844F6206136
:100AB000B0FBF1F0401E86B2ADF80460A8B2ADF80C
:100AC00008000020ADF80600ADF80A0001A915489D
:100AD000FFF7B0FD01211348FFF786FD4FF4C0601A
:100AE000FFF726FC1E208DF8000003208DF8010082
:100AF0008DF8020001208DF803006846FFF7E0FB47
:100B000001210848FFF77CFD002201210548FFF77D
:100B100086FD00210348FFF776FD7FBDA07F17000B
:100B2000000000200008004070B504460D4655B195
:100B3000012240F225511048FFF733FE02210F48F1
:100B4000FFF7B4FB05E0002240F225510A48FFF709
:100B500028FE54B1012240F226610748FFF721FE2A
:100B600002210648FFF7A4FB05E0002240F22661BF
:100B70000148FFF716FE70BD00440040000C014024
:100B800030B587B004460D4601210420FFF7ECFB89
:100B900001210820FFF7E8FB01214804FFF7D4FBFF
:100BA0000420ADF8180018208DF81B0003208DF8E4
:100BB0001A0006A92348FFF7EEFA0820ADF818003E
:100BC00004208DF81B0006A91E48FFF7E4FA022056
:100BD000ADF8180010208DF81B0003208DF81A00C6
:100BE00006A91948FFF7D7FA02211748FFF760FB5B
:100BF00002940020ADF80C00ADF80E00ADF8100026
:100C0000ADF814000C20ADF8120002A90F48FFF750
:100C1000EDFD4FF4C060FFF78BFB26208DF804003C
:100C200000208DF805008DF8060001208DF80700E2
:100C300001A8FFF745FB01210448FFF77CFD07B041
:100C400030BD000000080140000C0140004400409D
:100C500070B504460D466078052819D008DC0128D7
:100C60000DD002280CD003280BD0042814D10EE09C
:100C700006280ED00F280DD010280DD10BE00BE068
:100C80000AE020782A46E11C00F008F804E003E0BE
:100C900002E001E000E000BF00BF70BD70B5034698
:100CA0000020951EECB20B4D2B7010E011F8016B7B
:100CB0003502094E26F8105011F8015B36F8106025
:100CC0003543054E26F81050651EECB2401C002C32
:100CD000ECDC70BD2C0000203000002070B5044614
:100CE0000D4600210846FFF71FFF29462046FFF763
:100CF00047FF2046FFF7C8FE70BD000010B50E4844
:100D00000078042816D10C48017B0D30FFF760FEF7
:100D100004467CB9084800790749497B884209D1D3
:100D200005484179807B814204D10348017B0D3025
:100D3000FFF78EFF10BD0000460000202DE9F041B6
:100D400080460C4615461E46012C04D0032C03D0C9
:100D5000042C2AD128E028E000201649C870087326
:100D6000084680F80480447129128171C5713112DE
:100D7000017246720621001DFFF72AFE07460D4844
:100D800087723912C17208200A4988700879FFF702
:100D900045FE0848C078401C0649C870012008700C
:100DA0000021FFF7C1FE00E000BF00BF0020BDE84A
:100DB000F08100004600002010B515480078022898
:100DC00002D0032822D117E0114890F80D01401CF1
:100DD0000F4981F80D01084690F80D0164280ADBDF
:100DE000002081F80D0106200870FFF721FE002188
:100DF0000846FFF799FE09E0042005490870FFF74F
:100E000017FE00210846FFF78FFE00BF00BF10BD90
:100E10004600002008B56846FFF7F6FD1748007841
:100E2000022802D0032826D113E0002013490873BA
:100E30009DF800101148027B007B401C0F4B18737B
:100E400003F10D008154032019460870FFF706FED8
:100E500011E00A48007BFF280ADC9DF800100748D3
:100E6000027B007B401C054B187303F10D0081547D
:100E7000FFF7F4FD00BF00BF08BD000046000020E2
:100E800010B516480078012802D0022824D11EE0AF
:100E90001248C0781149897888420DD102200F4943
:100EA000087001210020FFF73FFE00200B4981F868
:100EB0000D01FFF7D3FD09E00849CA78C978491C3C
:100EC000064BD970191D885CFFF7A8FD04E00121CD
:100ED0000020FFF729FE00BF00BF10BD4600002024
:100EE00000C1814001C0804101C0804100C18140FA
:100EF00001C0804100C1814000C1814001C08041EA
:100F000001C0804100C1814000C1814001C08041D9
:100F100000C1814001C0804101C0804100C18140C9
:100F200001C0804100C1814000C1814001C08041B9
:100F300000C1814001C0804101C0804100C18140A9
:100F400000C1814001C0804101C0804100C1814099
:100F500001C0804100C1814000C1814001C0804189
:100F600001C0804100C1814000C1814001C0804179
:100F700000C1814001C0804101C0804100C1814069
:100F800000C1814001C0804101C0804100C1814059
:100F900001C0804100C1814000C1814001C0804149
:100FA00000C1814001C0804101C0804100C1814039
:100FB00001C0804100C1814000C1814001C0804129
:100FC00001C0804100C1814000C1814001C0804119
:100FD00000C1814001C0804101C0804100C1814009
:100FE00000C0C101C30302C2C60607C705C5C404C9
:100FF000CC0C0DCD0FCFCE0E0ACACB0BC90908C839
:10100000D81819D91BDBDA1A1EDEDF1FDD1D1CDC28
:1010100014D4D515D71716D6D21213D311D1D01098
:10102000F03031F133F3F23236F6F737F53534F488
:101030003CFCFD3DFF3F3EFEFA3A3BFB39F9F838F8
:1010400028E8E929EB2B2AEAEE2E2FEF2DEDEC2CE8
:10105000E42425E527E7E62622E2E323E12120E058
:10106000A06061A163A3A26266A6A767A56564A448
:101070006CACAD6DAF6F6EAEAA6A6BAB69A9A868B8
:1010800078B8B979BB7B7ABABE7E7FBF7DBDBC7CA8
:10109000B47475B577B7B67672B2B373B17170B018
:1010A0005090915193535292965657975595945408
:1010B0009C5C5D9D5F9F9E5E5A9A9B5B9959589878
:1010C000884849894B8B8A4A4E8E8F4F8D4D4C8C68
:1010D00044848545874746868242438341818040D8
:1010E000001100080000002030000000DA080008AD
:1010F000301100083000002028050000EA08000830
:1011000000A24A04000000000000000001020304E5
:10111000060708090000000001020304010203049D
:10112000060708090204060800000000000000008D
:0400000508000131BD
:00000001FF
