:020000040800F2
:100000005806002045010008890400088104000802
:1000100085040008B1010008F9090008000000008B
:100020000000000000000000000000004906000879
:100030006103000800000000110500085D070008CA
:100040005F0100085F0100085F0100085F01000810
:100050005F0100085F0100085F0100085F01000800
:100060005F0100085F0100085F0100085F010008F0
:100070005F0100085F0100085F0100085F010008E0
:100080005F0100085F0100085F0100085F010008D0
:100090005F0100085F0100085F0100085F010008C0
:1000A0005F0100085F0100085F0100085F010008B0
:1000B0005F0100085F0100085F0100085F010008A0
:1000C0005F0100085F0100085F0100085F01000890
:1000D0005F0100085F010008C10700085F01000818
:1000E0005F0100085F0100085F0100085F01000870
:1000F0005F0100085F0100085F0100085F01000860
:100100005F0100085F0100085F0100085F0100084F
:100110005F0100085F0100085F0100085F0100083F
:100120005F0100085F0100085F0100085F0100082F
:10013000DFF80CD000F02AF800480047AD0A0008AC
:10014000580600200648804706480047FEE7FEE7BD
:10015000FEE7FEE7FEE7FEE7FEE7FEE7FEE7FEE777
:100160006107000831010008D2B201E000F8012B5C
:10017000491EFBD270470022F6E710B513460A4627
:1001800004461946FFF7F0FF204610BD064C074D08
:1001900006E0E06840F0010394E807009847103457
:1001A000AC42F6D3FFF7C8FFF8100008181100089A
:1001B00000BFFEE721B1026842F00102026004E0E4
:1001C00002684FF6FE731A400260704701684FF6EE
:1001D000FE72114001600021016041608160C160D8
:1001E0004B49884208D14A490839496841F00F0112
:1001F000474A083A51608AE045491431884208D19B
:1002000043490839496841F0F001414A083A5160D0
:100210007DE03F492831884208D13D490839496885
:1002200041F470613A4A083A516070E038493C3113
:10023000884208D136490839496841F47041344A46
:10024000083A516063E032495031884208D1304960
:100250000839496841F470212D4A083A516056E046
:100260002B496431884208D129490839496841F449
:100270007001274A083A516049E02549783188429F
:1002800008D123490839496841F07061204A083A89
:1002900051603CE01F49884206D1011F096841F0C6
:1002A0000F01021F116032E01A491431884208D14F
:1002B0001849091F096841F0F001164A121F116020
:1002C00025E014492831884208D11249091F0968DC
:1002D00041F470610F4A121F116018E00D493C3162
:1002E000884208D10B49091F096841F47041094A45
:1002F000121F11600BE007495031884207D10549B0
:10030000091F096841F47021024A121F11607047E9
:1003100008000240080402400146486880B2704765
:1003200010B50022026847F6F0739A430C6A8B6896
:1003300023430C6923434C6923438C692343CC69D1
:1003400023434C6A23438C6A23431A430260CB68DD
:1003500043600B6883604B68C36010BD41607047A9
:1003600070472DE9F04102460025002600200023B9
:100370000024002791F803C00CF00F0591F803C08A
:100380000CF0100CBCF1000F03D091F802C04CEA45
:10039000050591F800C0BCF1000F31D014680020B1
:1003A0002BE04FF0010C0CFA00F3B1F800C00CEA9E
:1003B00003069E4220D183004FF00F0C0CFA03F786
:1003C000BC4305FA03FC4CEA040491F803C0BCF1F9
:1003D000280F06D14FF0010C0CFA00FCC2F814C033
:1003E0000AE091F803C0BCF1480F05D14FF0010CB1
:1003F0000CFA00FCC2F810C0401C0828D1D31460CD
:10040000B1F800C0BCF1FF0F34DD546800202EE0CD
:1004100000F1080C4FF0010808FA0CF3B1F800C025
:100420000CEA03069E4221D183004FF00F0C0CFA18
:1004300003F7BC4305FA03FC4CEA040491F803C03B
:10044000BCF1280F05D100F1080C08FA0CF8C2F82D
:10045000148091F803C0BCF1480F07D100F1080CDB
:100460004FF0010808FA0CF8C2F81080401C082868
:10047000CED35460BDE8F08141617047016170479F
:1004800000BFFEE700BFFEE77047000070B5002127
:1004900000230F22C47804B3154C246804F4E064EC
:1004A000C4F5E064210AC1F10403CA40447804FAA7
:1004B00003F184781440214309010E4C0678A155BC
:1004C000047804F01F050124AC4005786D11AD00DF
:1004D00005F1E025C5F8004109E0047804F01F05A6
:1004E0000124AC40044D0678761145F8264070BDD5
:1004F0000CED00E000E400E080E100E0024901438F
:10050000024A1160704700000000FA050CED00E09F
:100510007047000029B1064A52690243044B5A61F0
:1005200004E0034A52698243014B5A61704700005C
:100530000010024029B1064AD2690243044BDA6135
:1005400004E0034AD2698243014BDA61704700003C
:100550000010024029B1064A92690243044B9A6195
:1005600004E0034A92698243014B9A61704700009C
:100570000010024030B500210022002400232D4D40
:100580006D6805F00C0121B1042905D0082923D19B
:1005900005E0294D056022E0274D05601FE0254D4F
:1005A0006D6805F47012234D6D6805F480340225E2
:1005B00005EB92421CB9214D554305600BE01D4DE2
:1005C0006D6805F400351DB11C4D5543056002E012
:1005D000194D5543056002E0174D056000BF00BF8F
:1005E000144D6D6805F0F0010909154D6B5C056847
:1005F000DD4045600F4D6D6805F4E061090A104D5E
:100600006B5C4568DD4085600A4D6D6805F460519E
:10061000C90A0B4D6B5C4568DD40C560054D6D68D2
:1006200005F44041890B074D6B5CC568B5FBF3F5DC
:10063000056130BD0010024000127A0000093D0043
:100640001400002024000020704710B500F002F8CC
:1006500010BD00000CB500200190009033480068E8
:1006600040F480303149086000BF3048006800F431
:10067000003000900198401C0190009818B9019832
:10068000B0F5A06FF1D12948006800F4003010B136
:100690000120009001E0002000900098012843D143
:1006A0002348006840F010002149086008460068AF
:1006B00020F0030008600846006840F0020008606F
:1006C0001A4840681949486008464068486008462A
:1006D000406840F4806048600846406820F47C1020
:1006E00048600846406840F4E810486008460068E2
:1006F00040F08070086000BF0C48006800F0007097
:100700000028F9D00948406820F0030007494860F4
:100710000846406840F00200486000BF0348406857
:1007200000F00C000828F9D10CBD000000100240B8
:1007300000200240042808D14FF0E021096941F06F
:1007400004014FF0E022116107E04FF0E021096958
:1007500021F004014FF0E022116170477047000062
:1007600010B51348006840F00100114908600846C0
:100770004068104908400E494860084600680E4924
:1007800008400B4908600846006820F48020086093
:100790000846406820F4FE0048604FF41F0088605F
:1007A000FFF753FF4FF000600449086010BD0000E0
:1007B000001002400000FFF8FFFFF6FE08ED00E029
:1007C00010B500BF40F22441154800F055F8C0B103
:1007D00013480088C4B21248001D0088C4B21148F2
:1007E000FFF79AFD40421049087001200F49087038
:1007F00040F224410A4800F01BF800210948FFF7A5
:10080000D9FC40F22661064800F036F8012806D1EE
:1008100000F044FB40F22661014800F009F810BDE9
:10082000004400406C0002402D0000202E000020FB
:1008300010B50022002340F66A14A14200D100BF87
:100840000A1201249440A3B2DC43048010BD21B1FC
:10085000828942F40052828104E082894DF6FF735E
:100860001A40828170471AB1838A0B43838202E067
:10087000838A8B438382704770B50246002400232D
:100880000025002040F66A16B14200D100BFC1F336
:10089000421501F01F03012606FA03F3012D02D1D0
:1008A0009689334006E0022D02D1168A334001E0DA
:1008B000968A33400C12012606FA04F41688344056
:1008C00013B10CB1012000E0002070BDF0B503466B
:1008D000002400260025002040F66A17B94200D106
:1008E00000BF1846C1F3421401F01F06012707FAA2
:1008F00006F5012C01D10C3004E0022C01D110309E
:1009000000E014301AB107682F43076002E007685F
:10091000AF430760F0BD00002DE9F04786B0054603
:100920000E460024A24600BFA1460027B08900B1B0
:1009300000BF2F462C8A4CF6FF700440F088044319
:100940002C82AC894EF6F3100440B08831890843FC
:10095000718908430443AC81AC8A4FF6FF400440E0
:10096000B0890443AC8201A8FFF704FE1F48874208
:1009700002D1DDF810A001E0DDF80CA0A88900F498
:10098000004040B10AEBCA0000EB0A103168490090
:10099000B0FBF1F807E00AEBCA0000EB0A1031687F
:1009A0008900B0FBF1F86420B8FBF0F004012009E5
:1009B000642101FB1089A88900F4004040B1322075
:1009C00000EBC900B0FBF1F000F00700044308E0C1
:1009D000322000EB09106421B0FBF1F000F00F00B1
:1009E00004432C8106B0BDE8F087000000380140C8
:1009F000C1F308028280704700BFFEE702E008C82A
:100A0000121F08C1002AFAD170477047002001E088
:100A100001C1121F002AFBD17047000010B56FF012
:100A20000400FFF787FE0A4800680A49B0FBF1F0AE
:100A3000094908700846007800EB4001C1EBC0107E
:100A40004FF6FF7101EAC0000449088010BD0000A4
:100A50000000002000127A00280000202A00002058
:100A60000146114A12884A434FF0E0235A6100229E
:100A70009A611A46126942F001021A6100BF4FF0F2
:100A8000E022106900F001021AB100F48032002A5D
:100A9000F5D04FF0E022126922F001024FF0E0237E
:100AA0001A6100229A6170472A0000200024FFF793
:100AB000B5FF00214FF4964000F086F94FF47A70AC
:100AC000FFF7CEFF43E00B2300220321012000F0BB
:100AD000A7F93220FFF7C4FF1D480078012814D180
:100AE00000F07EF900201A49087021461948FFF7E6
:100AF00042FB0020184908704FF480711748FFF737
:100B00002DFC01211548FFF755FB0B230022032183
:100B1000022000F085F93220FFF7A2FF0C48007890
:100B2000012814D100F05CF9002009490870214621
:100B30000848FFF720FB0020074908704FF4807138
:100B40000648FFF70BFC01210448FFF733FBBAE727
:100B50002E000020560100202D0000206C000240D5
:100B600070B502460C46FF25FF2309E012F8010B81
:100B700080EA03010648405C80EA05030548455CBD
:100B8000201EA4F10106B4B2F0D143EA052070BDE5
:100B9000F80E0008F80F000810B504462146024878
:100BA000FFF726FF10BD00000044004070B504466A
:100BB0000D4655B1012240F225511048FFF786FE3F
:100BC00002210F48FFF758FC05E0002240F22551B2
:100BD0000A48FFF77BFE54B1012240F22661074824
:100BE000FFF774FE02210648FFF748FC05E00022EB
:100BF00040F226610148FFF769FE70BD00440040E5
:100C0000000C014030B591B004460D460121084664
:100C1000FFF780FC01210420FFF79CFC0121082044
:100C2000FFF798FC01214804FFF784FC0420ADF88D
:100C3000400018208DF8430003208DF8420010A9D1
:100C40003948FFF78EFB0820ADF8400004208DF8EE
:100C5000430010A93448FFF784FB0220ADF84000A0
:100C600010208DF8430003208DF8420010A92F4872
:100C7000FFF777FB02212D48FFF700FC0C940020C2
:100C8000ADF83400ADF83600ADF83800ADF83C00F2
:100C90000C20ADF83A000CA92548FFF73DFE0121D4
:100CA0002348FFF7D4FD012240F224412048FFF7FA
:100CB0000DFE4FF4C060FFF721FC26208DF82C00BC
:100CC00000208DF82D008DF82E0001208DF82F00CA
:100CD0000BA8FFF7DBFB1748FFF778FA1448001D55
:100CE00000901548019080200590002004904FF45A
:100CF00080700390002002900A90079006904FF4B5
:100D0000805009900020089069460A48FFF708FBC8
:100D100001210848FFF74EFA012240210448FFF75D
:100D2000A2FD11B030BD000000080140000C0140E0
:100D3000004400406C0002405601002070B504469B
:100D40000D466078052819D008DC01280DD002284E
:100D50000CD003280BD0042814D10EE006280ED0A6
:100D60000F280DD010280DD10BE00BE00AE0207801
:100D70002A46E11C00F008F804E003E002E001E08C
:100D800000E000BF00BF70BD70B503460020951E97
:100D9000ECB20B4D2B7010E011F8016B3502094ECF
:100DA00026F8105011F8015B36F810603543054EF7
:100DB00026F81050651EECB2401C002CECDC70BD17
:100DC0002C0000203000002070B504460D460021A4
:100DD0000846FFF7EBFE29462046FFF713FF70BDDC
:100DE00010B50C4801780C48FFF7BAFE044684B9E8
:100DF000094800780949097988420AD106484178AA
:100E000006484079814204D1024801780248FFF740
:100E100095FF10BD2D000020560100204600002047
:100E20002DE9F04180460C4615461E46012C04D0A3
:100E3000032C03D0042C2AD128E028E000201649F6
:100E4000C8708881084680F8048044712912817135
:100E5000C5713112017246720621001DFFF780FE36
:100E600007460D4887723912C17208200A498870F6
:100E70000879FFF791FE0848C078401C0649C87001
:100E8000012008700021FFF791FE00E000BF00BFC5
:100E90000020BDE8F08100004600002010B5154894
:100EA0000078012802D0022822D11CE01148C07825
:100EB0001049897888420BD102200E49087001211F
:100EC0000020FFF773FE00200A4981F80E0109E0B7
:100ED0000849CA78C978491C064BD970191D885C25
:100EE000FFF75AFE04E001210020FFF75FFE00BF7C
:100EF00000BF10BD4600002000C1814001C08041FC
:100F000001C0804100C1814001C0804100C18140D9
:100F100000C1814001C0804101C0804100C18140C9
:100F200000C1814001C0804100C1814001C08041B9
:100F300001C0804100C1814001C0804100C18140A9
:100F400000C1814001C0804100C1814001C0804199
:100F500001C0804100C1814000C1814001C0804189
:100F600001C0804100C1814001C0804100C1814079
:100F700000C1814001C0804101C0804100C1814069
:100F800000C1814001C0804100C1814001C0804159
:100F900001C0804100C1814000C1814001C0804149
:100FA00001C0804100C1814001C0804100C1814039
:100FB00000C1814001C0804100C1814001C0804129
:100FC00001C0804100C1814001C0804100C1814019
:100FD00000C1814001C0804101C0804100C1814009
:100FE00000C1814001C0804100C1814001C08041F9
:100FF00001C0804100C1814000C0C101C30302C2E1
:10100000C60607C705C5C404CC0C0DCD0FCFCE0E48
:101010000ACACB0BC90908C8D81819D91BDBDA1AB8
:101020001EDEDF1FDD1D1CDC14D4D515D71716D628
:10103000D21213D311D1D010F03031F133F3F23298
:1010400036F6F737F53534F43CFCFD3DFF3F3EFE08
:10105000FA3A3BFB39F9F83828E8E929EB2B2AEA78
:10106000EE2E2FEF2DEDEC2CE42425E527E7E626E8
:1010700022E2E323E12120E0A06061A163A3A26258
:1010800066A6A767A56564A46CACAD6DAF6F6EAEC8
:10109000AA6A6BAB69A9A86878B8B979BB7B7ABA38
:1010A000BE7E7FBF7DBDBC7CB47475B577B7B676A8
:1010B00072B2B373B17170B0509091519353529218
:1010C00096565797559594549C5C5D9D5F9F9E5E88
:1010D0005A9A9B5B99595898884849894B8B8A4AF8
:1010E0004E8E8F4F8D4D4C8C448485458747468668
:1010F0008242438341818040181100080000002093
:1011000030000000FC0900084811000830000020F1
:10111000280600000C0A000800A24A040000000093
:101120000000000001020304060708090000000097
:101130000102030401020304060708090204060869
:081140000000000000000000A7
:0400000508000131BD
:00000001FF
